:1000000000000120B5020000DD020000DF02000058
:10001000E1020000E3020000E50200000000000031
:10002000000000000000000000000000E7020000E7
:10003000E902000000000000EB020000ED020000F9
:10004000EF020000EF020000EF020000EF020000EC
:10005000EF020000EF020000EF020000EF020000DC
:10006000EF020000EF020000EF020000EF020000CC
:10007000EF020000EF020000EF020000EF020000BC
:10008000EF020000EF020000EF020000EF020000AC
:10009000EF020000EF020000EF020000EF0200009C
:1000A000EF020000EF020000EF020000EF0200008C
:1000B000EF020000EF02000000000000000000005E
:1000C000EF020000EF020000EF020000EF0200006C
:1000D000EF020000EF020000EF020000000000004D
:1000E0000000000000000000000000000000000010
:1000F0000000000000000000000000000000000000
:1001000000000000000000000000000000000000EF
:1001100000000000000000000000000000000000DF
:1001200000000000000000000000000000000000CF
:1001300000000000000000000000000000000000BF
:1001400000000000000000000000000000000000AF
:10015000000000000000000000000000000000009F
:10016000000000000000000000000000000000008F
:10017000000000000000000000000000000000007F
:10018000000000000000000000000000000000006F
:10019000000000000000000000000000000000005F
:1001A000000000000000000000000000000000004F
:1001B000000000000000000000000000000000003F
:1001C000000000000000000000000000000000002F
:1001D000000000000000000000000000000000001F
:1001E000000000000000000000000000000000000F
:1001F00000000000000000000000000000000000FF
:1002000010B5054C237833B9044B13B10448AFF350
:1002100000800123237010BD680000200000000052
:100220009803000008B5034B1BB103490348AFF323
:10023000008008BD000000006C0000209803000052
:10024000154B002B08BF134B9D46A3F5803A0021A8
:100250008B460F461348144A121A00F085F80F4BCC
:10026000002B00D098470E4B002B00D09847002061
:10027000002104000D000D48002802D00C48AFF307
:10028000008000F04DF82000290000F031F800F067
:1002900033F800BF0000080000000120000000004B
:1002A0000000000068000020840000200000000022
:1002B000000000000649074A074B9B1A03DD043B78
:1002C000C858D050FBDC00F015F8FFF7B9FF00006C
:1002D000A40300000000002068000020FEE7FEE705
:1002E000FEE7FEE7FEE7FEE7FEE7FEE7FEE7FEE7E6
:1002F000FEE700BF704700BF08B5074B044613B1C7
:100300000021AFF30080054B1868836A03B198475A
:10031000204600F031F800BF000000009403000008
:1003200070B50D4E0D4CA41BA4100025A54209D19B
:100330000B4E0C4C00F022F8A41BA4100025A54283
:1003400005D170BD56F8253098470135EEE756F8CF
:10035000253098470135F2E760000020600000205A
:10036000600000206400002002440346934200D154
:10037000704703F8011BF9E7FEE700BFF8B500BFBF
:10038000F8BC08BC9E467047F8B500BFF8BC08BC76
:0C0390009E4670470000002000000000A6
:08039C00A4FEFF7F0100000038
:1003A4000000000000000000000000000000000049
:1003B4000000000000000000000000000000000039
:1003C4000000000000000000000000000000000029
:1003D4000000000000000000000000000000000019
:1003E4000000000000000000000000000000000009
:1003F40000000000000000000000000000000000F9
:080404002502000001020000C6
:04000003000002B542
:00000001FF
